:100000000C9415010C9436010C9436010C943601B5
:100010000C9436010C9436010C9436010C94360184
:100020000C9436010C9436010C9436010C94360174
:100030000C9436010C9436010C9436010C94B316D2
:100040000C9436010C949F170C9436010C943601D5
:100050000C9436010C9486160C9436010C943601DF
:100060000C9436010C942F100C94630F0C943601F1
:100070000C9436010C9436010C9436010C94360124
:100080000C94CC170C9436010C9436010C94360168
:100090000C945E100C94910F0C9436010C94360164
:1000A0000C9436010C9436010C9436010C943601F4
:1000B0000C9436010C94F0160C9436010C94F9173C
:1000C0000C9436010C9436010C9436010C9491106A
:1000D0000C94BF0F0C9436010C94C4100C94ED0FCB
:1000E0000C943601B103B403BB03C103C803CD03B1
:1000F0006C04D203620467040C94D2030C948C0445
:100100000C9482040C9462040C94BB030C94CD03F5
:100110000C94B4030C94C8030C94C1030C9487048E
:100120000C946C040C94B1030C9467040C94380187
:1001300000407A10F35A00A0724E18090010A5D49E
:10014000E80000E87648170000E40B54020000CAFB
:100150009A3B000000E1F505000080969800000041
:1001600040420F000000A0860100000010270000A0
:100170000000E803000000006400000000000A0026
:10018000000000000100000000002C76D888DC6729
:100190004F0823DFC1DFAE59E1B1B796E5E3E45381
:1001A000C63AE651997696E8E6C28426EB898C9B9E
:1001B00062ED407C6FFCEFBC9C9F40F2BAA56FA53E
:1001C000F490055A2AF75C936B6CF9676DC11BFCC0
:1001D000E0E40D47FEF520E6B500D0ED902E0300DB
:1001E000943577050080841E080000204E0A000028
:1001F00000C80C333333330F986E12831141EF8DE7
:100200002114893BE65516CFFEE6DB18D1844B3826
:100210001BF77C1D901DA4BBE424203284725E2257
:100220008100C9F124ECA1E53D2711241FBECFEFC9
:10023000D1E2DEBFCDBF00E00CBF12E0A0E0B2E033
:10024000ECE4FAE300E00BBF02C007900D92A0348B
:10025000B107D9F726E0A0E4B2E001C01D92A038B2
:10026000B207E1F70E944D010C9446180C9400006F
:100270007894809100058F5F809300058091000540
:100280006AE00E94E21C911107C00E94CA0E81E040
:10029000809349051092000508950E94D50E0E9492
:1002A000A00E789410922F0510923005109231050F
:1002B00010923205109233051092340510923505D4
:1002C00010923605109237051092380510923905B4
:1002D00010923A0510923B0510923C0510923D0594
:1002E00010923E0560913F05709140058091410557
:1002F0009091420529E23CE54FE05DE30E94BD1884
:1003000087FF28C00E9493048DEC9CECACE4BDE315
:100310008093330590933405A0933505B09336054B
:100320008FE295E00E9449070E942D0560913F05EC
:1003300070914005809141059091420529E23CE58C
:100340004FE05DE30E94BD1887FDEECF0E94420B97
:100350000E949C04109249051092000510920D0510
:1003600010920C0510920F0510920E0510921105B7
:1003700010921005109213051092120548E351E0F7
:1003800060E070E088EC92E40E9446160E947F16BE
:100390000E94F7101092480510920B05F12C29E0ED
:1003A000D22E3EEFB32E42E0C42EEE24E39458E06A
:1003B000A52E67E0962E75E0872E8091490588234B
:1003C00009F488C1FF2009F485C11092490586E02F
:1003D00080931405D092150560915D0570915E05BE
:1003E00080915F05909160052BED3FE049E450E47A
:1003F0000E94C21820E03EEF4FEF56E40E94211AFF
:1004000020E030E0A9010E941C1A87FD1BC060910A
:100410005D0570915E0580915F05909160052BED03
:100420003FE049E450E40E94C21820E03EEF4FEF65
:1004300056E40E94211A20E030E040E05FE30E9491
:1004400051181AC060915D0570915E0580915F053D
:10045000909160052BED3FE049E450E40E94C21802
:1004600020E03EEF4FEF56E40E94211A20E030E0FA
:1004700040E05FE30E9450180E943419762E672EE8
:1004800060930C0570930D0560913F0570914005D8
:1004900080914105909142052BED3FE049E450E405
:1004A0000E94C21820E03EEF4FEF56E40E94211A4E
:1004B00020E030E0A9010E941C1A87FD1BC060915A
:1004C0003F057091400580914105909142052BEDCB
:1004D0003FE049E450E40E94C21820E03EEF4FEFB5
:1004E00056E40E94211A20E030E040E05FE30E94E1
:1004F00051181AC060913F057091400580914105E7
:10050000909142052BED3FE049E450E40E94C2186F
:1005100020E03EEF4FEF56E40E94211A20E030E049
:1005200040E05FE30E9450180E943419162F072FF5
:1005300060930E0570930F0560910105709102059F
:1005400080910305909104052BED3FE049E450E4D0
:100550000E94C21820E03EEF4FEF56E40E94211A9D
:1005600020E030E0A9010E941C1A87FD1BC06091A9
:1005700001057091020580910305909104052BED12
:100580003FE049E450E40E94C21820E03EEF4FEF04
:1005900056E40E94211A20E030E040E05FE30E9430
:1005A00051181AC0609101057091020580910305F0
:1005B000909104052BED3FE049E450E40E94C218FD
:1005C00020E03EEF4FEF56E40E94211A20E030E099
:1005D00040E05FE30E9450180E943419EB016093E1
:1005E0001005D09311056091260570912705809123
:1005F0002805909129052BED3FE049E450E40E9445
:10060000C21820E03EEF4FEF56E40E94211A20E08E
:1006100030E0A9010E941C1A87FD1BC060912605CD
:100620007091270580912805909129052BED3FE0D9
:1006300049E450E40E94C21820E03EEF4FEF56E438
:100640000E94211A20E030E040E05FE30E94511850
:100650001AC0609126057091270580912805909118
:1006600029052BED3FE049E450E40E94C21820E048
:100670003EEF4FEF56E40E94211A20E030E040E0C8
:100680005FE30E9450180E943419CB016093120559
:100690009093130560921605709217050093180544
:1006A00010931905D0931A05C0931B0590931C0550
:1006B00060931D050E94C415019711F4C2E001C0AA
:1006C000C0E00E9420168C2B80931E0584E195E0EB
:1006D0000E94810E0E94CC0E082F10E084E0782E3C
:1006E00093E0692E101709F468CEC0914805D0E058
:1006F0000E941B10C158DB4F888360914805E62F8C
:10070000F0E0E158FB4F80816F5F8111F2C04AE455
:1007100055E08FE794E00E94090E882309F4EEC0AB
:1007200080910B0590914A0581110EC09111E6C090
:10073000E0920B05109214051092150584E195E0E6
:100740000E94810EF12CDAC0492F50E04A30510549
:1007500008F0C2C0FA018827EE58FF4F8F4F0C9463
:10076000021D1092140511C0E09214051092150597
:10077000FF24F394B9C0C092140510921505F12C12
:10078000B3C00E9493046092140510921505ACC08A
:100790000E949C0470921405F8CF0E94420B809234
:1007A0001405F3CF80914B05883009F09DC060910E
:1007B0004C0570914D05762767277627072E000C8C
:1007C000880B990B0E946C1920E03EEF4FEF56E426
:1007D0000E94C2182BED3FE049E450E40E94211A28
:1007E00060932F0570933005809331059093320507
:1007F00060914E0570914F05762767277627072E63
:10080000000C880B990B0E946C1920E03EEF4FEF13
:1008100056E40E94C2182BED3FE049E450E40E94E8
:10082000211A6093330570933405809335059093B6
:100830003605609150057091510576276727762718
:10084000072E000C880B990B0E946C1920E03EEFDC
:100850004FEF56E40E94C2182BED3FE049E450E40C
:100860000E94211A609337057093380580933905EB
:1008700090933A056091520570915305762767274A
:100880007627072E000C880B990B0E946C1920E02C
:100890003EEF4FEF56E40E94C2182BED3FE049E4D3
:1008A00050E40E94211A60933B0570933C058093AD
:1008B0003D0590933E058FE295E00E944907909296
:1008C000140563CF0E94C915A09214055ECF0E9443
:1008D000DE15D092140559CFB0921405C0921505BB
:1008E00090931605E092170584E195E00E94810E31
:1008F00005C067FD03C06093480502C0109248051B
:100900001F5FF0CE91B381E0892781BB089591B339
:1009100080E4892781BB0895EBE0F1E0908188E0D5
:100920008927808308958A9AE8E0F1E080818160D8
:1009300080835F9A0C94E1138A98E8E0F1E080816B
:100940008E7F80835F980C94C714CF93DF93869A31
:10095000879A829AEAE0F1E08081886080838081D2
:1009600082608083E7E0F1E0808181608083809A0B
:10097000819A579A8081806180838081886080839A
:10098000808184608083E8E0F1E080818061808301
:100990008081877F80838081846080830E949C0423
:1009A0000E942716C1E2D4E020E030E044EB52E49C
:1009B0006E897F89888D998D0E94501829E33AEFBE
:1009C0004EE85CE30E94211AEDE5F5E06083718357
:1009D00082839383148215821682178210862E8555
:1009E0003F854889598960E070E084EB92E40E9479
:1009F000501829E33AEF4EE85CE30E94211AEFE336
:100A0000F5E060837183828393831482158216825A
:100A10001782108629E33AEF4EE85CE36A897B8906
:100A20008C899D890E94211AE1E0F5E06083718341
:100A30008283938314821582168217821086E6E2DF
:100A4000F5E01082118212821382148215821682BE
:100A500017821086DF91CF910895CF92DF92EF92A7
:100A6000FF920E94271620E030E044EB52E46091B0
:100A70003704709138048091390490913A040E94AF
:100A8000501829E33AEF4EE85CE30E94211A609384
:100A90005D0570935E0580935F05909360052091DE
:100AA0002F0430913004409131045091320460E0C1
:100AB00070E084EB92E40E94501829E33AEF4EE88C
:100AC0005CE30E94211A60933F0570934005809378
:100AD00041059093420529E33AEF4EE85CE36091CB
:100AE00033047091340480913504909136040E944F
:100AF000211A60930105709302058093030590937A
:100B000004050E94C91420E030E044EB52E40E9446
:100B1000501829E33AEF4EE85CE30E94211A6093F3
:100B200026057093270580932805909329056091E9
:100B30005D0570915E0580915F059091600528EDDF
:100B40003FE049EC5FEB0E94BD181816F4F060918D
:100B5000610570916205809163059091640520E0C4
:100B600030E0A9010E94BD1887FF0DC080916F0081
:100B70008D7F80936F001092610510926205109234
:100B80006305109264058FEF2DC060915D05709133
:100B90005E0580915F059091600528ED3FE049EC8E
:100BA0005FE30E941C1A87FD20C06091610570916F
:100BB0006205809163059091640520E030E0A90111
:100BC0000E941C1A18166CF480916F008D7F809320
:100BD0006F001092610510926205109263051092E9
:100BE000640581E08093650502C0109265056091FF
:100BF0003F057091400580914105909142052FE895
:100C000032EC45EF5CE30E94BD181816F4F06091D9
:100C1000430570914405809145059091460520E07B
:100C200030E0A9010E94BD1887FF0DC080917100BE
:100C30008D7F8093710010924305109244051092AD
:100C40004505109246058FEF2DC060913F057091CC
:100C50004005809141059091420528ED3FE049EC27
:100C60005FE30E941C1A87FD20C0609143057091CC
:100C70004405809145059091460520E030E0A901AA
:100C80000E941C1A18166CF4809171008D7F80935D
:100C90007100109243051092440510924505109280
:100CA000460581E08093470502C010924705609198
:100CB000010570910205809103059091040523E3DD
:100CC00033E343EB5EEB0E94BD181816F4F060911D
:100CD000050570910605809107059091080520E0B3
:100CE00030E0A9010E94BD1887FF0DC080917300FC
:100CF0008D7F809373001092050510920605109267
:100D00000705109208058FEF2DC0609101057091C5
:100D10000205809103059091040528ED3FE049EC20
:100D20005FE30E941C1A87FD20C060910505709149
:100D30000605809107059091080520E030E0A901A3
:100D40000E941C1A18166CF4809173008D7F80939A
:100D50007300109205051092060510920705109277
:100D6000080581E08093090502C010920905609191
:100D7000260570912705809128059091290528ED79
:100D80003FE049EC5FEB0E94BD181816CCF0609173
:100D90002A0570912B0580912C0590912D0520E05E
:100DA00030E0A9010E94BD1887FF08C010922A05F3
:100DB00010922B0510922C0510922D058FEF28C054
:100DC000609126057091270580912805909129054D
:100DD00028ED3FE049EC5FE30E941C1A87FD1BC031
:100DE00060912A0570912B0580912C0590912D051D
:100DF00020E030E0A9010E941C1A181644F4109259
:100E00002A0510922B0510922C0510922D0581E0D9
:100E100080932E0502C010922E0560912A057091D4
:100E20002B0580912C0590912D05C0902605D09022
:100E30002705E0902805F09029052DEC3CEC4CECC2
:100E40005DE30E94211AA70196010E945118609348
:100E500026057093270580932805909329056091B6
:100E600026057091270580912805909129052EED82
:100E70003EE245E652E40E94211A20E030E044EBD5
:100E800052E40E945118FF90EF90DF90CF900C94A5
:100E90003114CF92DF92EF92FF92CF93DF93EC0168
:100EA000809165058F3F59F420E030E0A901688109
:100EB00079818A819B810E94BD1887FD0FC0809136
:100EC0006505813079F420E030E0A90168817981FD
:100ED0008A819B810E941C1A181624F41882198298
:100EE0001A821B82C880D980EA80FB80C701B601C4
:100EF0009F7726EB30E144E65BE30E941C1A18164C
:100F00000CF0EBC028ED3FE049EC5FE3C701B60110
:100F10000E941C1A18169CF028ED3FE049EC5FEB8C
:100F2000C701B6010E94BD1887FF11C068EDC62E2B
:100F30006FE0D62E69ECE62E6FEBF62E08C078ED4A
:100F4000C72E7FE0D72E79ECE72E7FE3F72EC092F5
:100F50006105D0926205E0926305F09264056091AC
:100F6000610570916205809163059091640520E0B0
:100F700030E0A9010E94BD1887FF02C0899A01C014
:100F800089988091610590916205A0916305B09167
:100F90006405BC01CD019F772EED3EE245E652E4AB
:100FA0000E94211A20E030E040EA52E40E94211A17
:100FB0009B01AC010E94511820E030E0A9010E9481
:100FC0001C1A87FD22C08091610590916205A09155
:100FD0006305B0916405BC01CD019F772EED3EE223
:100FE00045E652E40E94211A20E030E040EA52E453
:100FF0000E94211A9B01AC010E94511820E030E0B0
:1010000040E05FE30E94511821C0809161059091FA
:101010006205A0916305B0916405BC01CD019F7785
:101020002EED3EE245E652E40E94211A20E030E037
:1010300040EA52E40E94211A9B01AC010E9451181F
:1010400020E030E040E05FE30E9450180E94341935
:1010500082E894E09093720480937104109280006F
:101060008AE08093810080E090E00E946A1920E08D
:1010700030E040E051E40E94211A9B01AC0160E0A5
:1010800074E284E79BE40E94C2186B017C0120E0BB
:1010900030E0A9010E941C1A20E030E040E05FE34C
:1010A00087FD05C0C701B6010E94511804C0C701E1
:1010B000B6010E9450180E94341961507109709352
:1010C00089006093880010928500109284008091BE
:1010D0006F00826080936F000DC080916F008D7FE4
:1010E00080936F0010926105109262051092630563
:1010F00010926405809147058F3F59F420E030E05D
:10110000A9016C817D818E819F810E94BD1887FD20
:101110000FC080914705813079F420E030E0A901CB
:101120006C817D818E819F810E941C1A181624F487
:101130001C821D821E821F82CC80DD80EE80FF809B
:10114000C701B6019F7726EB30E144E65BE30E94DE
:101150001C1A18160CF0EBC028ED3FE049EC5FE3D9
:10116000C701B6010E941C1A18169CF028ED3FE03A
:1011700049EC5FEBC701B6010E94BD1887FF11C0A3
:1011800048EDC42E4FE0D42E49ECE42E4FEBF42E64
:1011900008C058EDC52E5FE0D52E59ECE52E5FE373
:1011A000F52EC0924305D0924405E0924505F09299
:1011B00046056091430570914405809145059091E5
:1011C000460520E030E0A9010E941C1A181614F40C
:1011D0008F9A01C08F988091430590914405A0910A
:1011E0004505B0914605BC01CD019F772EED3EE24D
:1011F00045E652E40E94211A20E030E040EA52E441
:101200000E94211A9B01AC010E94511820E030E09D
:10121000A9010E941C1A87FD22C08091430590916C
:101220004405A0914505B0914605BC01CD019F77CD
:101230002EED3EE245E652E40E94211A20E030E025
:1012400040EA52E40E94211A9B01AC010E9451180D
:1012500020E030E040E05FE30E94511821C080911F
:10126000430590914405A0914505B0914605BC0108
:10127000CD019F772EED3EE245E652E40E94211A11
:1012800020E030E040EA52E40E94211A9B01AC01C8
:101290000E94511820E030E040E05FE30E945018C7
:1012A0000E94341987E894E0909364048093630467
:1012B000109290008AE08093910080E090E00E947C
:1012C0006A1920E030E040E051E40E94211A9B01BD
:1012D000AC0160E074E284E79BE40E94C2186B01F9
:1012E0007C0120E030E0A9010E941C1A20E030E0DF
:1012F00040E05FE387FD05C0C701B6010E945118B9
:1013000004C0C701B6010E9450180E9434196150F0
:101310007109709399006093980010929500109253
:101320009400809171008260809371000DC0809163
:1013300071008D7F809371001092430510924405D7
:101340001092450510924605809109058F3F59F48A
:1013500020E030E0A901688579858A859B850E9417
:10136000BD1887FD0FC080910905813079F420E018
:1013700030E0A901688579858A859B850E941C1AC1
:10138000181624F4188619861A861B86C884D984F0
:10139000EA84FB84C701B6019F7726EB30E144E67F
:1013A0005BE30E941C1A18160CF0F1C028ED3FE018
:1013B00049EC5FE3C701B6010E941C1A18169CF0A5
:1013C00028ED3FE049EC5FEBC701B6010E94BD1874
:1013D00087FF11C028EDC22E2FE0D22E29ECE22E7D
:1013E0002FEBF22E08C038EDC32E3FE0D32E39ECA0
:1013F000E32E3FE3F32EC0920505D0920605E0925E
:101400000705F09208056091050570910605809129
:1014100007059091080520E030E0A9010E94BD1861
:1014200087FF04C080910B01826003C080910B0193
:101430008D7F80930B018091050590910605A09109
:101440000705B0910805BC01CD019F772EED3EE266
:1014500045E652E40E94211A20E030E040EA52E4DE
:101460000E94211A9B01AC010E94511820E030E03B
:10147000A9010E941C1A87FD22C080910505909148
:101480000605A0910705B0910805BC01CD019F7725
:101490002EED3EE245E652E40E94211A20E030E0C3
:1014A00040EA52E40E94211A9B01AC010E945118AB
:1014B00020E030E040E05FE30E94511821C08091BD
:1014C000050590910605A0910705B0910805BC019E
:1014D000CD019F772EED3EE245E652E40E94211AAF
:1014E00020E030E040EA52E40E94211A9B01AC0166
:1014F0000E94511820E030E040E05FE30E94501865
:101500000E9434198CE894E090935604809355041B
:10151000109220018AE08093210180E090E00E94F7
:101520006A1920E030E040E051E40E94211A9B015A
:10153000AC0160E074E284E79BE40E94C2186B0196
:101540007C0120E030E0A9010E941C1A20E030E07C
:1015500040E05FE387FD05C0C701B6010E94511856
:1015600004C0C701B6010E9450180E94341961508E
:10157000710970932901609328011092250110923E
:101580002401809173008260809373000DC080916C
:1015900073008D7F809373001092050510920605ED
:1015A000109207051092080580912E058F3F59F47F
:1015B00020E030E0A9016C857D858E859F850E94A5
:1015C000BD1887FD0FC080912E05813079F420E091
:1015D00030E0A9016C857D858E859F850E941C1A4F
:1015E000181624F41C861D861E861F86CC84DD8476
:1015F000EE84FF84C701B6019F7726EB30E144E615
:101600005BE30E941C1A181674F528ED3FE049ECC4
:101610005FE3C701B6010E941C1A18169CF028ED62
:101620003FE049EC5FEBC701B6010E94BD1887FFA0
:1016300011C088EDC82E8FE0D82E89ECE82E8FEBF4
:10164000F82E08C098EDC92E9FE0D92E99ECE92E0E
:101650009FE3F92EC0922A05D0922B05E0922C052B
:10166000F0922D0508C010922A0510922B051092B9
:101670002C0510922D05DF91CF91FF90EF90DF9018
:10168000CF900895EFE6F0E080818D7F8083E1E7E1
:10169000F0E080818D7F8083E3E7F0E080818D7FC3
:1016A000808310926105109262051092630510927A
:1016B000640510924305109244051092450510925E
:1016C0004605109205051092060510920705109226
:1016D000080510922A0510922B0510922C051092E5
:1016E0002D050895F999FECF92BD81BD81E08FBB94
:1016F00080B50895BF92CF92DF92EF92FF920F9341
:101700001F93CF93DF93C82E4EE06CE60E949E128B
:10171000C82F4FE06CE68C2D0E949E12D0E0DC2F8B
:10172000CC27C82B8E017E0134E0B32E4EE06CE650
:101730008C2D0E949E12D82E4FE06CE68C2D0E94BC
:101740009E122D2D30E0322F2227A901482BCA01ED
:10175000E816F90608F47C018017910708F48C015B
:10176000C80FD91FBA94B110E1CFCE018E199F09CD
:10177000801B910B63E070E00E94EE1C613050E131
:10178000750710F4CB0102C080E090E0DF91CF91AB
:101790001F910F91FF90EF90DF90CF90BF90089531
:1017A000EF92FF920F931F93CF93DF9382E393E027
:1017B0000E94720B8B3B19F080E293E002C084E33D
:1017C00093E02AE0E22E24E0F22EC4E0D4E08C0183
:1017D00004501440C8018C0F9D1F0E94720B899306
:1017E000EC16FD06B9F7DF91CF911F910F91FF9095
:1017F000EF900895CF92DF92EF92FF920F931F9395
:10180000CF93DF93EC010E947A0B9C01C130D1058C
:1018100091F128F0C230D10509F459C084C060911B
:10182000060470910704CB01A0E0B0E0890120E03C
:1018300030E06C017D01C01AD10AE20AF30A41E0EE
:10184000C41648E0D406E104F10424F09051A10943
:10185000B1090AC0C11448EFD4064FEFE406F406FC
:101860001CF4905FAF4FBF4FBC01CD01601B710BEB
:10187000820B930B65C06091080470910904CB0141
:10188000A0E0B0E0890120E030E06C017D01C01AE9
:10189000D10AE20AF30A41E0C41648E0D406E104A2
:1018A000F10424F09051A109B1090AC0C11448EF14
:1018B000D4064FEFE406F4061CF4905FAF4FBF4F21
:1018C000BC01CD01601B710B820B930B45C0609175
:1018D000040470910504CB01A0E0B0E0890120E090
:1018E00030E06C017D01C01AD10AE20AF30A41E03E
:1018F000C41648E0D406E104F10424F09051A10993
:10190000B1090AC0C11448EFD4064FEFE406F4064B
:101910001CF4905FAF4FBF4FBC01CD01601B710B3A
:10192000820B930B22C0C130D10599F030F0229781
:1019300019F560E070E0CB0118C060E070E0CB0109
:1019400045E2C42E49E0D42E43E0E42E42E4F42ED6
:1019500016C060E070E0CB0139E0C32E36EFD32E25
:1019600031EBE32E32E4F32E0AC0C12CD12C24EB50
:10197000E22E22E4F22E03C060E070E0CB010E9470
:101980006C1920E030E044EB53E40E94211A20E07F
:1019900030E040E859E30E94211A9B01AC01C701E5
:1019A000B6010E945018DF91CF911F910F91FF90C7
:1019B000EF90DF90CF900895EF92FF920F931F93D7
:1019C000CF93DF930E9485120E94D00BCAE3D3E02D
:1019D00081E090E08C010F5F1F4F0E94720B899392
:1019E000C8010B3C1105B1F78AEBE82E82E0F82E16
:1019F000E8012196C8010E94720BF70181937F01D3
:101A00008E01CB34F1E0DF0799F700E412E07E01AC
:101A10008FEFE81AF80ACE010E94720BF801819349
:101A20008F01E701F5ECEF16F1E0FF0681F7DF919A
:101A3000CF911F910F91FF90EF900895009741F083
:101A4000EFE9FFE03197F1F700C000000197F6CF12
:101A50000895FC0180E027E0615060F091918927B2
:101A600098E087FF03C0880F822701C0880F91503C
:101A7000C1F7F2CF0895CF93DF93FB01E40FF11D7F
:101A80001182DB01382FFC0181E090E02E2F231B17
:101A9000241780F42191211107C0EB01C90FD11D3A
:101AA0008883980F81E004C011962C9311978F5F63
:101AB0001196ECCFFB01E90FF11D8083DF91CF91EF
:101AC0000895EF92FF920F931F93CF938C0190E0B4
:101AD00050E07A0181E0E81AF108292F092E000C64
:101AE000330BF801E20FF31FC081F901EC0FF11D78
:101AF000E417F507ECF42F5F3F4FF801E20FF31FF7
:101B0000DB0161E09D012F5F3F4F6C1728F481914D
:101B10008C93D9016F5FF6CFB9011C929C0F292FCE
:101B2000092E000C330B2E153F05BCF281E001C0DD
:101B300080E0CF911F910F91FF90EF9008955F92F9
:101B40006F927F928F929F92AF92BF92CF92DF92CD
:101B5000EF92FF920F931F93CF93DF93CDB7DEB732
:101B60007C014B015A016DB67EB6FC012181822FAA
:101B700090E06C01F3E0CF0ED11C04964DB75EB738
:101B8000481B590B0FB6F8945EBF0FBE4DBF0DB783
:101B90001EB70F5F1F4F83E2EDB7FEB78183F701DA
:101BA0008081F80181832283F7013296ADB7BEB7F9
:101BB0001496512C521621F081918D935394FACFA3
:101BC00063E0650DC8010E94290DF801EC0DFD1DB3
:101BD000808344E0450DB401C8010E943B0DF7012C
:101BE00081818A5FF50180830FB6F8947EBE0FBEB7
:101BF0006DBEDF91CF911F910F91FF90EF90DF901D
:101C0000CF90BF90AF909F908F907F906F905F909C
:101C100008958F929F92AF92BF92CF92DF92EF92F0
:101C2000FF920F931F93CF93DF93CDB7DEB7962E1E
:101C30007A01CDB6DEB62FEF260F263110F0812CBB
:101C40004DC0A62EB12C2DB73EB72A193B090FB6B1
:101C5000F8943EBF0FBE2DBF0DB71EB70F5F1F4FCD
:101C6000462FB8010E94610D882E882341F3F801A8
:101C70008081843221F76DEF690DC8010E94290D22
:101C8000F801EA0DFB1D339790818913D8CFF80135
:101C900081818A3048F08D3F21F08E3F21F08FEF17
:101CA00003C08DEF01C08EEFF7018083F8018281C0
:101CB000F7018183282F30E0F6E0AF1AB1082A152A
:101CC0003B0509F0BCCFF8013396D701129690E09E
:101CD000981721F021912D939F5FFACF882D0FB691
:101CE000F894DEBE0FBECDBEDF91CF911F910F9154
:101CF000FF90EF90DF90CF90BF90AF909F908F902C
:101D000008951F93CF93DF931F92CDB7DEB7AE0137
:101D10004F5F5F4F66E675E00E949F0D10E089817E
:101D2000181748F4E12FF0E0EA59FA4F80810E9439
:101D3000270F1F5FF4CF0F90DF91CF911F91089570
:101D400054985C9AEDE6F0E0808180618083E8E65B
:101D5000F0E08081846080838FE39CE90197F1F754
:101D600000C000000E948E150E94DC0C0E94051627
:101D70000E94EC140E94A5040E94DE150E940C161D
:101D80000E940F16EAE7F0E08081876880839B98C5
:101D9000A39A08950C942D059091510480915204BA
:101DA000891708F48058891B0895E0ECF0E08081E1
:101DB000826080831092C50080E18093C400E1ECD2
:101DC000F0E0908190619083908198609083908101
:101DD00090689083E8ECF0E090819260908310929C
:101DE000CD008093CC00E9ECF0E09081906190838D
:101DF000908198609083908190689083E0EDF0E00E
:101E00009081926090831092D5008093D400E1ED90
:101E1000F0E09081906190839081986090839081B0
:101E200090689083E0E3F1E090819260908310925B
:101E3000350180933401E1E3F1E0808180618083AA
:101E40008081886080838081806880830895E091AC
:101E5000500491E09E0F903831F490E004C020913E
:101E6000FF0424FD2FC020914F042917C1F3F0E097
:101E7000E458FA4F80839093500480914D049091E0
:101E80004E048130910569F030F08230910579F08F
:101E9000039799F008958091C10080628093C100FA
:101EA00008958091C90080628093C900089580914F
:101EB000D10080628093D1000895809131018062C9
:101EC0008093310108951F920F920FB60F92112443
:101ED0000BB60F928F939F93EF93FF9380914F04D4
:101EE000E82FF0E0E458FA4F90819093C6008F5F9E
:101EF000803809F480E080934F0490915004891356
:101F000005C08091C1008F7D8093C100FF91EF914A
:101F10009F918F910F900BBE0F900FBE0F901F904F
:101F200018951F920F920FB60F9211240BB60F92B5
:101F30008F939F93EF93FF9380914F04E82FF0E0EE
:101F4000E458FA4F90819093CE008F5F803809F467
:101F500080E080934F0490915004891305C08091D4
:101F6000C9008F7D8093C900FF91EF919F918F9160
:101F70000F900BBE0F900FBE0F901F9018951F92E1
:101F80000F920FB60F9211240BB60F928F939F935F
:101F9000EF93FF9380914F04E82FF0E0E458FA4F5D
:101FA00090819093D6008F5F803809F480E0809311
:101FB0004F0490915004891305C08091D1008F7D0A
:101FC0008093D100FF91EF919F918F910F900BBE65
:101FD0000F900FBE0F901F9018951F920F920FB683
:101FE0000F9211240BB60F928F939F93EF93FF9351
:101FF00080914F04E82FF0E0E458FA4F90819093DD
:1020000036018F5F803809F480E080934F0490910F
:102010005004891305C0809131018F7D8093310177
:10202000FF91EF919F918F910F900BBE0F900FBE7C
:102030000F901F9018959091510480915204981719
:1020400061F0E92FF0E0E450FA4F80819F5F903813
:1020500009F490E09093510408958FEF08951F9232
:102060000F920FB60F9211240BB60F922F938F93EE
:102070009F93EF93FF939091C60010924E0410929D
:102080004D04E091520481E08E0F803809F480E025
:1020900020915104821731F0F0E0E450FA4F908320
:1020A00080935204FF91EF919F918F912F910F9008
:1020B0000BBE0F900FBE0F901F9018951F920F929E
:1020C0000FB60F9211240BB60F922F933F938F935D
:1020D0009F93EF93FF939091CE0021E030E03093F7
:1020E0004E0420934D04E091520481E08E0F80381D
:1020F00009F480E020915104821731F0F0E0E450BF
:10210000FA4F908380935204FF91EF919F918F91AA
:102110003F912F910F900BBE0F900FBE0F901F900D
:1021200018951F920F920FB60F9211240BB60F92B3
:102130002F933F938F939F93EF93FF939091D600AC
:1021400022E030E030934E0420934D04E09152049D
:1021500081E08E0F803809F480E0209151048217CD
:1021600031F0F0E0E450FA4F908380935204FF91F5
:10217000EF919F918F913F912F910F900BBE0F90F8
:102180000FBE0F901F9018951F920F920FB60F92CF
:1021900011240BB60F922F933F938F939F93EF933E
:1021A000FF939091360123E030E030934E0420936A
:1021B0004D04E091520481E08E0F803809F480E0F4
:1021C00020915104821731F0F0E0E450FA4F9083EF
:1021D00080935204FF91EF919F918F913F912F91A6
:1021E0000F900BBE0F900FBE0F901F90189580910F
:1021F0005204809351040895399A419A439A85E094
:102200008A95F1F70000399A419885E08A95F1F7AF
:102210000000439885E08A95F1F7000008954398FF
:10222000399A419885E08A95F1F70000439A85E054
:102230008A95F1F70000399A419A85E08A95F1F77D
:1022400000000895399A419A8AE08A95F1F700C012
:10225000439A9AE09A95F1F700C0399893E326B132
:10226000822F827021FF06C09150C9F70E940F1182
:1022700081E0089543989AE09A95F1F700C0089597
:1022800098E04398399A87FF02C0419A01C041986B
:1022900025E02A95F1F70000439A25E02A95F1F709
:1022A00000004398880F25E02A95F1F7000091502F
:1022B00041F785E08A95F1F70000399A419A25E0C7
:1022C0002A95F1F700000895A1E0B1E08C918460B7
:1022D0008C93E2E0F1E0808184608083808180687B
:1022E000808385E08A95F1F700008C9184608C935F
:1022F00080818B7F808385E08A95F1F70000808163
:102300008F77808385E08A95F1F700000895E2E0F9
:10231000F1E080818F778083A1E0B1E08C918460CF
:102320008C9380818B7F808385E08A95F1F7000014
:1023300080818068808385E08A95F1F700008C9128
:1023400084608C9380818460808385E08A95F1F736
:1023500000000895809101018460809301018091C3
:1023600002018460809302018AE08A95F1F700C03F
:10237000809102018068809302019AE09A95F1F7BA
:1023800000C0809101018B7F8093010193E3209134
:102390000001822F847022FF06C09150C1F70E9475
:1023A000871181E00895909102019F779093020137
:1023B0009AE09A95F1F700C0089598E02091020103
:1023C0002F772093020120910101246020930101C5
:1023D0002091020187FF02C0246001C02B7F20935F
:1023E000020125E02A95F1F7000020910201206802
:1023F0002093020125E02A95F1F7000020910201C7
:102400002F7720930201880F25E02A95F1F700002D
:102410009150A1F685E08A95F1F7000080910101C5
:1024200084608093010180910201846080930201A5
:1024300025E02A95F1F700000895559A5D9A5E9A75
:1024400085E08A95F1F70000559A5D9885E08A95B8
:10245000F1F700005E9885E08A95F1F70000089595
:102460005E98559A5D9885E08A95F1F700005E9A2E
:1024700085E08A95F1F70000559A5D9A85E08A9586
:10248000F1F700000895559A5D9A85E08A95F1F775
:1024900000005E9A95E09A95F1F70000559893E355
:1024A00029B1822F807225FF06C09150C9F70E9482
:1024B000301281E008955E9895E09A95F1F700005A
:1024C000089598E05E98559A87FF02C05D9A01C012
:1024D0005D9825E02A95F1F700005E9A25E02A959F
:1024E000F1F700005E98880F25E02A95F1F70000CB
:1024F000915041F785E08A95F1F70000559A5D9A71
:1025000025E02A95F1F700000895399A3B9A419AFF
:10251000439AE1E0F1E0808184608083808180687B
:102520008083E2E0F1E08081846080838081806844
:102530008083559A569A5D9A5E9A0895CF93DF9359
:10254000C62FD42F813009F47AC028F1823009F0E7
:1025500033C10E941D128C2F8E7F0E9461120E9437
:1025600043128D2F0E9461120E9443120E941D127D
:102570008C2F81600E9461120E94431295E09A950F
:10258000F1F70000559A5D9A85E08A95F1F7000011
:1025900088E0C0E0DEC00E94FC108C2F8E7F0E947D
:1025A00040110E9422118D2F0E9440110E94221181
:1025B0000E94FC108C2F81600E9440110E94221109
:1025C00085E08A95F1F70000399A419A95E09A954D
:1025D000F1F7000088E0C0E0439895E09A95F1F7A4
:1025E0000000439ACC0F95E09A95F1F700003998D6
:1025F0003199C16095E09A95F1F70000815061F73B
:102600004398399A419A85E08A95F1F70000439AF8
:1026100095E09A95F1F70000439885E08A95F1F7E7
:102620000000399A419A95E09A95F1F70000439895
:1026300085E08A95F1F700000E940F11BEC00E944C
:1026400064118C2F8E7F0E94DD110E94AA118D2FA4
:102650000E94DD110E94AA110E9464118C2F8160DA
:102660000E94DD110E94AA1195E09A95F1F70000F1
:102670008091010184608093010180910201846056
:102680008093020185E08A95F1F7000088E0C0E0C0
:10269000909102019F779093020195E09A95F1F74E
:1026A000000090910201906890930201CC0F95E098
:1026B0009A95F1F70000909101019B7F90930101A1
:1026C0009091000192FDC16095E09A95F1F70000AC
:1026D0008150F1F6809102018F7780930201809101
:1026E00001018460809301018091020184608093E4
:1026F000020185E08A95F1F700008091020180686F
:102700008093020195E09A95F1F700008091020113
:102710008F778093020185E08A95F1F70000809120
:1027200001018460809301018091020184608093A3
:10273000020195E09A95F1F70000809102018F77F0
:102740008093020185E08A95F1F700000E948711CD
:1027500034C05E9895E09A95F1F700005E9ACC0F30
:1027600095E09A95F1F7000055984D99C16095E074
:102770009A95F1F70000815061F75E98559A5D9A3D
:1027800085E08A95F1F700005E9A95E09A95F1F759
:1027900000005E9885E08A95F1F70000559A5D9AF1
:1027A00095E09A95F1F700005E9885E08A95F1F73B
:1027B00000000E94301201C0C0E08C2FDF91CF9149
:1027C000089560E27EE480E090E00E948B17ECE5E3
:1027D000F4E084819581A0E0B0E080937C06909342
:1027E0007D06A0937E06B0937F0620917C063091F3
:1027F0007D0640917E0650917F06ADE4B0E00E94D8
:102800000A1D60937C0670937D0680937E069093EC
:102810007F0680917C0690917D06A0917E06B09106
:102820007F062AE0B695A795979587952A95D1F7C3
:1028300080937C0690937D06A0937E06B0937F06DE
:1028400080917C0690917D06A0917E06B0917F06D6
:102850009093A9008093A800868180618093A10055
:102860000895CF92DF92EF92FF929B01AC0160E05E
:1028700070E084E393E40E94501820E030E044E3E9
:1028800053E40E94C2189B01AC010E94511820E041
:1028900030E040E05FE30E945118609300027093C3
:1028A0000102809302029093030220E030E040EAAC
:1028B00051E40E94C21820E030EC4FE754E40E943B
:1028C000211A6B017C0120E030E0A9010E941C1A52
:1028D00020E030E040E05FE387FD05C0C701B601BE
:1028E0000E94511804C0C701B6010E9450180E94EE
:1028F0003419DB01409160045091610460E070E0A4
:1029000040937C0650937D0660937E0670937F060D
:1029100020917C0630917D0640917E0650917F0685
:102920000E940A1D60937C0670937D0680937E064C
:1029300090937F0680917C0690917D06A0917E0603
:10294000B0917F062AE0B695A795979587952A9529
:10295000D1F780937C0690937D06A0937E06B0937A
:102960007F0680917C0690917D06A0917E06B091B5
:102970007F069093A9008093A800809162048061F3
:102980008093A100FF90EF90DF90CF9008950C947A
:10299000E61620E030E040E05FE3609100027091D5
:1029A000010280910202909103020E94501820E0DF
:1029B00030E040E05FE30E94211A20E030E044E391
:1029C00053E40E94211A9B01AC0160E070E084E3B3
:1029D00093E40E9450180895CF92DF92EF92FF92F5
:1029E0000F931F93CF93DF93CDB7DEB764970FB6E6
:1029F000F894DEBF0FBECDBF84E893E00E94720B57
:102A00008093210403E214E088E993E07C012FEF36
:102A1000E21AF20A0E94720BF80181938F01C7013A
:102A2000FCE9EF16F3E0FF0689F707E214E08EE811
:102A300093E07C012FEFE21AF20A0E94720BF80178
:102A400081938F01C701F2E9EF16F3E0FF0689F7E2
:102A50000BE214E082E89CE07C012FEFE21AF20A1C
:102A60000E94720BF80181938F01C701F6E8EF16FF
:102A7000FCE0FF0689F7C0902B04D0902C04E09076
:102A80002D04F0902E0420E030E044EB53E4C70125
:102A9000B6010E941C1A181644F0A7019601C7013E
:102AA000B6010E948E1A882341F010922B041092D6
:102AB0002C0410922D0410922E040CE014E08AEEE7
:102AC00093E07C012FEFE21AF20A0E94720BF801E8
:102AD00081938F01C701F6EFEF16F3E0FF0689F748
:102AE00060912B0470912C0480912D0490912E0400
:102AF0008E010F5F1F4F24E045E00E942618649668
:102B00000FB6F894DEBF0FBECDBFDF91CF911F91FE
:102B10000F91FF90EF90DF90CF9008958091040186
:102B2000837880930401809103018C77803419F4B9
:102B30006DE172E025C0809103018C7719F464E2A5
:102B400072E01EC0809103018C77803219F46BE231
:102B500072E016C0809103018C77803179F4809106
:102B6000030162E372E089E194E00E94491882E087
:102B700090E090930B0480930A04089569E372E057
:102B800089E194E00C944918809153049091540485
:102B900008959C9A9D9A839A809103018C77803145
:102BA00019F4A498A59A02C0A598A49A8B9A81E0DA
:102BB00090E09093540480935304089580915304BB
:102BC0009091540401970297F8F49C9A9D9A839AE5
:102BD0008B98A498809103018C77803171F4809157
:102BE000530490915404019741F4A598A49A82E368
:102BF00090E00E941E0DA49801C0A59A83E090E089
:102C0000909354048093530408958EB1806C8EB9D0
:102C10008DB18F738DB908953F9A479A0895E1E079
:102C2000F1E0808180628083808180648083E2E043
:102C3000F1E080818F7D808380818F7B8083089508
:102C400082B383FB882780F991E089270895CF9389
:102C5000DF9382E090E00E94FA0BC1E2D4E06E8B39
:102C60007F8B888F998F80E090E00E94FA0B6E87AF
:102C70007F87888B998B81E090E00E94FA0B6A8BAA
:102C80007B8B8C8B9D8BDF91CF910895CF92DF92C0
:102C9000EF92FF92509379044093780422E024BD90
:102CA00025E025BD20E030E040E854E40E94211AF0
:102CB0009B01AC0160E074E284E79BE40E94C218CF
:102CC0006B017C0120E030E0A9010E941C1A20E089
:102CD00030E040E05FE387FD05C0C701B6010E9418
:102CE000511804C0C701B6010E9450180E9434193F
:102CF000615067BDFF90EF90DF90CF90089516BCB4
:102D0000EEE6F0E080818260808308951F920F924A
:102D10000FB60F9211240BB60F922F933F934F9340
:102D20005F936F937F938F939F93AF93BF93EF9333
:102D3000FF93E0917804F0917904309709F01995A8
:102D4000FF91EF91BF91AF919F918F917F916F9183
:102D50005F914F913F912F910F900BBE0F900FBE3F
:102D60000F901F9018951F920F920FB60F9211247B
:102D70000BB60F922F933F934F935F936F937F9375
:102D80008F939F93AF93BF93EF93FF9380916C04C6
:102D900090916D048093B200E0916A04F0916B040D
:102DA000309709F01995FF91EF91BF91AF919F91E5
:102DB0008F917F916F915F914F913F912F910F90E4
:102DC0000BBE0F900FBE0F901F901895E2E7F0E03A
:102DD00080818E7F80831092A0001092A1000895C0
:102DE0001F920F920FB60F9211240BB60F922F93D2
:102DF0003F934F935F936F937F938F939F93AF9383
:102E0000BF93EF93FF9380915E0490915F04909342
:102E1000A5008093A400E0915C04F0915D043097DC
:102E200009F01995FF91EF91BF91AF919F918F910B
:102E30007F916F915F914F913F912F910F900BBEBA
:102E40000F900FBE0F901F901895DC01CB0163E02F
:102E5000880F991FAA1FBB1F6A95D1F7009721E021
:102E6000A207B10520F421E02093620442C000973C
:102E700028E0A207B10558F422E02093620453E051
:102E8000B695A795979587955A95D1F732C0009733
:102E900020E4A207B10558F423E02093620446E041
:102EA000B695A795979587954A95D1F722C0009733
:102EB000A10521E0B20740F424E020936204892FA9
:102EC0009A2FAB2FBB2715C00097A10524E0B207AE
:102ED00058F425E0209362042AE0B695A7959795CB
:102EE00087952A95D1F705C085E0809362048FEF1E
:102EF0009FEF9093610480936004809160049091AF
:102F000061049093A7008093A60080916204806181
:102F10008093A100089520E12093A100E0EAF0E071
:102F200010821092A5001092A400A1E0B1E02C91B3
:102F300028602C932081206820830C9425171F92F1
:102F40000F920FB60F9211240BB60F922F933F934F
:102F50004F935F936F937F938F939F93AF93BF93A1
:102F6000EF93FF93E0917104F0917204309709F0B0
:102F70001995FF91EF91BF91AF919F918F917F91A3
:102F80006F915F914F913F912F910F900BBE0F90DA
:102F90000FBE0F901F9018951F920F920FB60F92B1
:102FA00011240BB60F922F933F934F935F936F9320
:102FB0007F938F939F93AF93BF93EF93FF93E09192
:102FC0006304F0916404309709F01995FF91EF9133
:102FD000BF91AF919F918F917F916F915F914F9131
:102FE0003F912F910F900BBE0F900FBE0F901F902F
:102FF00018951F920F920FB60F9211240BB60F92D5
:103000002F933F934F935F936F937F938F939F93F0
:10301000AF93BF93EF93FF93E0915504F091560463
:10302000309709F01995FF91EF91BF91AF919F9162
:103030008F917F916F915F914F913F912F910F9061
:103040000BBE0F900FBE0F901F901895EF920F932D
:103050001F93CF93DF93E80147FD02C034E001C026
:1030600034E1042E000C550B57FF03C051954195D8
:103070005109E32E022F242FAE010E94931ACE0194
:10308000DF91CF911F910F91EF900895F8940C94D8
:10309000241DFB01DC0101900D920020E1F7089551
:1030A0005058BB27AA270E9468180C94E2190E9466
:1030B000D41938F00E94DB1920F039F49F3F19F43D
:1030C00026F40C94D1190EF4E095E7FB0C94CB197F
:1030D000E92F0E94F31958F3BA17620773078407A0
:1030E000950720F079F4A6F50C94151A0EF4E095E6
:1030F0000B2EBA2FA02D0B01B90190010C01CA01B2
:10310000A0011124FF27591B99F0593F50F4503E5C
:1031100068F11A16F040A22F232F342F4427585F4E
:10312000F3CF469537952795A795F0405395C9F766
:103130007EF41F16BA0B620B730B840BBAF091501E
:10314000A1F0FF0FBB1F661F771F881FC2F70EC0BD
:10315000BA0F621F731F841F48F487957795679590
:10316000B795F7959E3F08F0B0CF9395880F08F07C
:103170009927EE0F9795879508950E94A71908F44F
:1031800081E008950E94D6180C94E2190E94DB1980
:1031900058F00E94D41940F029F45F3F29F00C94B4
:1031A000CB1951110C94161A0C94D1190E94F319D1
:1031B00068F39923B1F3552391F3951B550BBB2766
:1031C000AA2762177307840738F09F5F5F4F220FAB
:1031D000331F441FAA1FA9F335D00E2E3AF0E0E8A2
:1031E00032D091505040E695001CCAF72BD0FE2FEC
:1031F00029D0660F771F881FBB1F26173707480780
:10320000AB07B0E809F0BB0B802DBF01FF27935837
:103210005F4F3AF09E3F510578F00C94CB190C9417
:10322000161A5F3FE4F3983ED4F386957795679539
:10323000B795F7959F5FC9F7880F911D969587956C
:1032400097F90895E1E0660F771F881FBB1F62178B
:1032500073078407BA0720F0621B730B840BBA0B49
:10326000EE1F88F7E09508950E943B196894B1110C
:103270000C94161A08950E94FB1988F09F5798F035
:10328000B92F9927B751B0F0E1F0660F771F881F6B
:10329000991F1AF0BA95C9F714C0B13091F00E9485
:1032A000151AB1E008950C94151A672F782F882706
:1032B000B85F39F0B93FCCF3869577956795B395AC
:1032C000D9F73EF490958095709561957F4F8F4F1B
:1032D0009F4F0895E89409C097FB3EF49095809520
:1032E000709561957F4F8F4F9F4F9923A9F0F92FCC
:1032F00096E9BB279395F695879577956795B7954A
:10330000F111F8CFFAF4BB0F11F460FF1BC06F5F2F
:103310007F4F8F4F9F4F16C0882311F096E911C041
:10332000772321F09EE8872F762F05C0662371F062
:1033300096E8862F70E060E02AF09A95660F771F76
:10334000881FDAF7880F9695879597F90895990F52
:103350000008550FAA0BE0E8FEEF16161706E8075F
:10336000F907C0F012161306E407F50798F0621B80
:10337000730B840B950B39F40A2661F0232B242B55
:10338000252B21F408950A2609F4A140A6958FEF74
:10339000811D811D089597F99F6780E870E060E0C6
:1033A00008959FEF80EC089500240A9416161706DE
:1033B00018060906089500240A9412161306140626
:1033C00005060895092E0394000C11F4882352F089
:1033D000BB0F40F4BF2B11F460FF04C06F5F7F4F41
:1033E0008F4F9F4F089557FD9058440F551F59F028
:1033F0005F3F71F04795880F97FB991F61F09F3FE2
:1034000079F087950895121613061406551FF2CF0A
:103410004695F1DF08C0161617061806991FF1CF5A
:1034200086957105610508940895E894BB27662781
:103430007727CB0197F908950E94A71908F48FEF19
:1034400008950E94341A0C94E2190E94D41938F09D
:103450000E94DB1920F0952311F00C94CB190C94E9
:10346000D11911240C94161A0E94F31970F3959F28
:10347000C1F3950F50E0551F629FF001729FBB276B
:10348000F00DB11D639FAA27F00DB11DAA1F649F07
:103490006627B00DA11D661F829F2227B00DA11DBA
:1034A000621F739FB00DA11D621F839FA00D611D40
:1034B000221F749F3327A00D611D231F849F600D61
:1034C000211D822F762F6A2F11249F5750409AF08A
:1034D000F1F088234AF0EE0FFF1FBB1F661F771F16
:1034E000881F91505040A9F79E3F510580F00C94E1
:1034F000CB190C94161A5F3FE4F3983ED4F38695EB
:1035000077956795B795F795E7959F5FC1F7FE2B80
:10351000880F911D9695879597F908950E94A71990
:10352000880B990B08958F929F92AF92BF92CF9282
:10353000DF92EF92FF920F931F93CF93DF93CDB75C
:10354000DEB729970FB6F894DEBF0FBECDBF6A0174
:10355000122FB02E2BE3201720F0FF24F394F00E4F
:1035600002C02CE3F22E0F2D27E0AE014F5F5F4F1C
:103570000E940A1CBC014981842F8970813031F07E
:10358000E1FC06C0E0FE06C090E205C09DE203C07B
:103590009BE201C090E05E2D507143FF3CC0911151
:1035A00002C083E001C084E0811718F4212F281B9A
:1035B00001C020E051110BC0F601822F30E28823B8
:1035C00019F031938150FBCFC20ED11C20E099231A
:1035D00029F0D6019C93F60131966F01C60103963E
:1035E000E2FE0AC03EE4D6013C9341E411964C93BE
:1035F000119712963C9306C03EE6F601308341E6F1
:1036000041833283FC01322F40E2332309F442C06C
:1036100041933150FACF42FF44C0911102C083E080
:1036200001C084E0811718F4212F281B01C020E07D
:1036300051110BC0F601822F30E2882319F031932B
:103640008150FBCFC20ED11C20E0992329F0D60176
:103650009C93F60131966F01C6010396E2FE0BC002
:1036600039E4D6013C933EE411963C93119736E43D
:1036700012963C9307C039E6F60130833EE631836B
:1036800036E63283FC01322F40E2332319F04193B6
:103690003150FBCFFC01E20FF11D10828EEF9FEF46
:1036A000A6C021E030E0911102C020E030E0161603
:1036B00017061CF4FB01319602C0E1E0F0E02E0F8A
:1036C0003F1FBB2021F0EB2DF0E0319602C0E0E07F
:1036D000F0E02E0F3F1FE12FF0E02E173F071CF404
:1036E000121B212F01C020E08E2D887159F4F601A4
:1036F000822F30E2882319F031938150FBCFC20E24
:10370000D11C20E0992329F0D6019C93F601319633
:103710006F0151110BC0F601822F90E3882319F03D
:1037200091938150FBCFC20ED11C20E00F2D060FCC
:103730009A81342F307144FF03C0913309F4015052
:10374000101624F4093018F008E001C001E0AB01C4
:1037500077FF02C040E050E0FB01E41BF50BA1E065
:10376000B0E0AC0FBD1FEA0FFB1F8EE2A82E4B018D
:10377000801A91080B2D10E01195019511094F3F0A
:10378000BFEF5B0721F4D601AC9211966D0164176F
:1037900075072CF08416950614F4818101C080E32E
:1037A000415051093196D60111967D0140175107BC
:1037B00024F0D6018C936701E2CF6417750739F4C2
:1037C000963320F4953319F4311101C081E3F601E9
:1037D0008083F701822F90E2882319F09193815022
:1037E000FBCFF701E20FF11D108280E090E02996F7
:1037F0000FB6F894DEBF0FBECDBFDF91CF911F9102
:103800000F91FF90EF90DF90CF90BF90AF909F907F
:103810008F900895283008F027E03327DA01990FB8
:10382000311D87FD916000966105710539F43260A4
:103830002E5F3D9330E32A95E1F708959F3F30F0E6
:1038400080387105610509F03C5F3C5F3D93913024
:1038500008F08068911DDF93CF931F930F93FF9221
:10386000EF92192F987F9695E92F96959695E90FE7
:10387000FF27E657FE4F99273327EE24FF24A701A1
:10388000E70105900894079428F4360FE71EF81E08
:10389000491F511D660F771F881F991F0694A1F7B6
:1038A0000590079428F4E70EF81E491F561FC11D06
:1038B000770F881F991F661F0694A1F7059007943C
:1038C00028F4F80E491F561FC71FD11D880F991FD6
:1038D000661F771F0694A1F70590079420F4490FFF
:1038E000561FC71FD81F990F661F771F881F069482
:1038F000A9F784911095177041F0D695C795579503
:103900004795F794E7941A95C1F7E0E3F1E06894DE
:103910001590159135916591959105907FE273957C
:10392000E118F10A430B560BC90BD009C0F7E10CA3
:10393000F11E431F561FC91FD01D7EF4703311F4B2
:103940008A95E6CFE894015030F0080F0AF400277A
:10395000021708F4202F2395022F7A3328F079E3F9
:103960007D932A95E9F710C07D932A9589F60694F0
:1039700097956795379517951794E118F10A430BBA
:10398000560BC90BD00998F023957E9173957A3325
:1039900008F070E37C932013B8F77E9170617D93FB
:1039A00030F0839571E37D9370E32A95E1F711245C
:1039B000EF90FF900F911F91CF91DF91992787FD95
:1039C00090950895991B79E004C0991F961708F007
:1039D000961B881F7A95C9F780950895AA1BBB1B73
:1039E00051E107C0AA1FBB1FA617B70710F0A61BFF
:1039F000B70B881F991F5A95A9F780959095BC0120
:103A0000CD010895EE0FFF1F881F8BBF0790F69121
:103A1000E02D19940E94151DA59F900DB49F900D47
:103A2000A49F800D911D11240895A29FB001B39F02
:103A3000C001A39F700D811D1124911DB29F700DB7
:0C3A4000811D1124911D0895F894FFCF02
:103A4C00AE47C13F40332058257320592573205A67
:103A5C002573205225730A007965730A0056332E9C
:103A6C00332E310056332E332E300056332E332E58
:103A7C00320056332E332E330056302E302E30007B
:00000001FF
